:020000040800F2
:10000000FCFF0020B1110000651000006510000029
:10001000651000006510000065100000651000000C
:1000200065100000651000006510000065100000FC
:1000300065100000651000006510000065100000EC
:1000400065100000651000006510000065100000DC
:1000500065100000651000006510000065100000CC
:1000600065100000651000006510000065100000BC
:1000700065100000651000006510000065100000AC
:10008000651000006510000065100000651000009C
:10009000651000006510000065100000651000008C
:1000A000651000006510000065100000651000007C
:1000B000651000006510000065100000651000006C
:1000C000651000006510000065100000651000005C
:1000D000651000006510000065100000651000004C
:1000E000651000006510000065100000651000003C
:1000F000651000006510000065100000651000002C
:10010000651000006510000065100000651000001B
:10011000651000006510000065100000651000000B
:1001200065100000651000006510000065100000FB
:1001300065100000651000006510000065100000EB
:1001400065100000651000006510000065100000DB
:1001500081B0194900EA0101084600220EE004209E
:1001600022E0082020E010201EE020201CE040209B
:100170001AE0802018E040F2001015E00F49884294
:10018000EDD00F498842ECD00E498842EBD00E49A1
:100190008842EAD00D498842E9D00D498842E8D02A
:1001A0000C498842E7D010460B49096841EA000231
:1001B00009490A6001B0704700FCFFFF00080140D8
:1001C000000C0140001001400014014000180140E3
:1001D000001C0140002001401810024081B0CDF801
:1001E00000E08CB21546774B00EA03031E46184622
:1001F000FFF7AEFFB4F1FF0F0CD1734B9D4203D15B
:100200004FF033333360D9E0422D03D14FF0443304
:100210003360D3E04FF6FF739C4214D16A4B9D428A
:1002200007D14FF033333360341D4FF03333236045
:10023000C4E0422D07D14FF044333360341D4FF0FA
:1002400044332360BAE00021002005F001030BB124
:1002500000211DE005F0020333B105F4C0730BB1BA
:10026000082100E0042113E005F0040333B105F098
:1002700020030BB1042100E0002109E005F0080390
:1002800033B105F020030BB10C2100E00821FFE79A
:100290004E4B05EA03030BB1032009E005F400739C
:1002A0000BB1022004E005F480630BB10120FFE7ED
:1002B00005F00C030BB10143FFE704F0FF039BB211
:1002C000002B3BD0376800201FFA84F832462E46B8
:1002D00008282CD24FF0010303FA00F408EA0403C3
:1002E000A34222D185004FF00F03AB40DB4307EA66
:1002F000030401FA05F344EA03031D4606F481737F
:10030000B3F5817F05D102F214044FF0010383405D
:10031000236006F08203822B05D102F210044FF015
:100320000103834023602F46FFE7401CD0E717609E
:100330001FFA88F00F463146164602E00F4629465E
:10034000A0B2B0F1FF0F39D9331DD3F800800022DD
:10035000082A30D202F208044FF0010303FA04F431
:1003600000EA0403A34224D195004FF00F03AB40F1
:10037000DB4308EA030807FA05F348EA030801F437
:100380008173B3F5817F07D106F2140502F20804E8
:100390004FF00103A3402B6001F08203822B07D1B1
:1003A00006F2100502F208044FF00103A3402B608F
:1003B000FFE7521CCCE7331DC3F80080DDF800E0F6
:1003C00001B0704700FCFFFF14000800000808009F
:1003D00001480068704700BF2000002083B0CDF8BE
:1003E00000E000F0FF031A09104603F00F02134665
:1003F00014E0194A02921FE0184A02921CE0184ABF
:10040000029219E0174A029216E0174A029213E08C
:10041000164A029210E0164A02920DE00028E8D037
:100420000128E9D00228EAD00328EBD00428ECD038
:100430000528EDD00628EED0012212B29A40ADF880
:10044000042002980A46BDF80410FFF7C7FEDDF845
:1004500000E003B0704700BF00080140000C0140FD
:10046000001001400014014000180140001C014030
:100470000020014082B0CDF800E00346194601910A
:10048000FFF7A6FF40F2E83100FB01F201990A6094
:100490001F490978C1F30311C8B21E490918087829
:1004A000C0B21A1D1968C140116019490988C1F309
:1004B000022188B2174909180878C0B203F208026D
:1004C000191D0968C140116011490988C1F3C22191
:1004D00088B2104909180878C0B203F20C02191D3D
:1004E0000968C14011600A490988C1F3813188B2A5
:1004F000094909180978C8B203F2100203F20C0185
:100500000968B1FBF0F11160DDF800E002B070475E
:10051000041002408D1300009A0E000081B0CDF847
:1005200000E0012252B23E490A6000F268010B6805
:100530006FF0006103EA0102144603F00061C90E86
:100540000B4602F00041B1F1004F02D135490A6873
:1005500001E035490A6804F47021090C0E464FF693
:10056000FF7104EA01010D4604F44011B1F5401F8A
:100570000DD16FF0706102EA01010E462A490A6846
:100580006FF070610A4028490A60324616E004F4B0
:100590008011B1F5801F09D14FF00301B140C9436B
:1005A00002EA010141F070610A4607E0610D0901AC
:1005B00005FA01F1C9430A4042F070622BB1610DA6
:1005C000090105FA01F10A43FFE704F00041B1F126
:1005D000004F02D113490A6001E013490A6040F25A
:1005E000000A81464FEA8A0109EB01010968B1F16D
:1005F000FF3F10D009F134014FEA8A03C918096896
:100600000A4609EB0301096808461146FFF7E6FEB2
:100610000AF1010AE6E7DDF800E001B0704700BF2B
:10062000000342421C0001400400014081B0ADF8CB
:1006300000100146BDF800000B68C3F3C01202B9F8
:10064000FAE70A1D106001B07047FFFF81B0016832
:10065000C1F3401001B0704781B00168C1F3801050
:1006600001B0704781B00268C2F3401101B9FAE7E6
:10067000011D096888B201B07047FFFF89B0CDF84D
:1006800000E0834698B28C46BDF824100A9E04AC64
:10069000ADF80410ADF808002046FFF7EBFEBDF8FA
:1006A0000800BDF80410644CA34512D101256DB2B9
:1006B000624C2560624D634C2560634D634C256040
:1006C000634D644C2560644D644C2560079C039425
:1006D00056E0634CA34512D101256DB2614C2560F3
:1006E000614D584C2560614D584C2560604D594C0A
:1006F0002560604D594C2560069C039440E05E4C9B
:10070000A34512D101256DB25C4C25605C4D4D4C6A
:1007100025605C4D4D4C25605B4D4E4C25605B4D1E
:100720004E4C2560069C03942AE0594CA34512D1F7
:1007300001256DB2574C2560574D424C2560574DF1
:10074000424C2560564D434C2560564D434C256028
:10075000069C039414E0544CA34511D101256DB2BD
:10076000524C2560524D374C2560524D374C256018
:10077000514D384C2560514D384C2560069C0394F2
:10078000ADF80410ADF808003046FFF7C7FEBDF81D
:100790000800BDF804100BF1100500242C600BF1CB
:1007A00010052C680C432C600BF10C0500242C6008
:1007B00018B140F4806080B2FFE70BF10C052C68A3
:1007C00004432C600BF10C060125346865F34D34AD
:1007D00034600BF10C060125346865F3C304346002
:1007E0000BF10C060125346865F3820434600BF1CB
:1007F000140500242C60039D192465434FEA8C04E2
:10080000B5FBF4F76424B7FBF4F42601350964243E
:100810006C433C1B240104F232056424B5FBF4F460
:1008200004F00F0446EA04040BF10805A4B22C609E
:10083000DDF800E009B0704700380140380342425B
:10084000110B0000240000200D09000028000020EA
:10085000C10800002C000020D90800003000002052
:1008600000440040C40342424109000079090000ED
:10087000390A0000210A000000480040C803424233
:100880005D090000510A0000810A0000690A0000A9
:10089000004C0040CC03424225090000090A000038
:1008A000A90900009109000000500040D003424215
:1008B000F1080000C1090000F1090000D909000099
:1008C00081B0CDF800E00348FFF7C0FEDDF800E09E
:1008D00001B070470038014081B0CDF800E0034816
:1008E000FFF7BAFEDDF800E001B0704700380140C4
:1008F00081B0CDF800E081B20348FFF797FEDDF844
:1009000000E001B0704700BF0050004081B0CDF85A
:1009100000E00348FFF7A6FEDDF800E001B07047F5
:100920000038014081B0CDF800E081B20348FFF704
:100930007DFEDDF800E001B0704700BF004C0040D4
:1009400081B0CDF800E081B20348FFF76FFEDDF81B
:1009500000E001B0704700BF0044004081B0CDF816
:1009600000E081B20348FFF761FEDDF800E001B06E
:10097000704700BF0048004081B0CDF800E0034858
:10098000FFF770FEDDF800E001B070470044004062
:1009900081B0CDF800E00348FFF75EFEDDF800E02F
:1009A00001B07047004C004081B0CDF800E0034832
:1009B000FFF74CFEDDF800E001B07047004C00404E
:1009C00081B0CDF800E00348FFF74CFEDDF800E011
:1009D00001B070470050004081B0CDF800E00348FE
:1009E000FFF73AFEDDF800E001B07047005000402C
:1009F00081B0CDF800E00348FFF728FEDDF800E005
:100A000001B070470050004081B0CDF800E00348CD
:100A1000FFF728FEDDF800E001B07047004C004011
:100A200081B0CDF800E00348FFF716FEDDF800E0E6
:100A300001B070470044004081B0CDF800E00348A9
:100A4000FFF704FEDDF800E001B07047004400400D
:100A500081B0CDF800E00348FFF704FEDDF800E0C8
:100A600001B070470048004081B0CDF800E0034875
:100A7000FFF7F2FDDDF800E001B0704700480040EC
:100A800081B0CDF800E00348FFF7E0FDDDF800E0BD
:100A900001B070470048004081B0CDF800E0019DF2
:100AA0002C4610B408B493B28AB201460348FFF74B
:100AB000E5FD02B0DDF800E001B07047003801400C
:100AC00081B0CDF800E0019D2C4610B408B493B27B
:100AD0008AB201460348FFF7D1FD02B0DDF800E01D
:100AE00001B070470044004081B0CDF800E0019DA6
:100AF0002C4610B408B493B28AB201460348FFF7FB
:100B0000BDFD02B0DDF800E001B0704700480040D4
:100B100081B0CDF800E081B20348FFF787FDDDF832
:100B200000E001B0704700BF0038014081B0CDF84F
:100B300000E00178CCB2A0B2034C2468A0470020AA
:100B4000DDF800E001B070471C00002081B0CDF856
:100B500000E0094902B440F2000340F2000240F212
:100B60000001FFF7C1FF01B0044A05490A600020F7
:100B7000DDF800E001B070473C1200005D090000A4
:100B80001C00002081B0CDF800E0094902B440F219
:100B9000000340F2000240F20001FFF77DFF01B0C8
:100BA000044A05490A600020DDF800E001B0704702
:100BB000A8120000110B00001C00002081B0CDF82D
:100BC00000E0094902B440F2000340F2000240F2A2
:100BD0000001FFF775FF01B0044A05490A600020D3
:100BE000DDF800E001B07047D011000041090000BD
:100BF0001C00002081B0CDF800E0044C2468A04720
:100C0000C0B2DDF800E001B0704700BF3C0000203A
:100C100081B0CDF800E0034C2468A047DDF800E087
:100C200001B070473400002081B0CDF800E00B4DDA
:100C300000F20C010C6800F208010B68011D0A6843
:100C40000168084691B29AB2A3B220B4FFF738FF08
:100C500001B00020DDF800E001B07047D0110000C5
:100C600081B0CDF800E00B4D00F20C010C6800F2F1
:100C700008010B68011D0A680168084691B29AB222
:100C8000A3B220B4FFF730FF01B00020DDF800E090
:100C900001B070473C120000026806490A60011D5D
:100CA0000A6805490A6000F208010A6803490A60F7
:100CB000704700BF340000203C00002038000020B6
:100CC00081B0CDF800E0044C2468A047C0B2DDF844
:100CD00000E001B0704700BF3800002000F2300390
:100CE0001A680B490A6003F218010A6809490A6088
:100CF00003F21C010A6808490A6000F208010A6848
:100D000006490A60011D0A6805490A60704700BF6C
:100D10004000002044000020480000204C0000203B
:100D20005000002081B0CDF800E0094902B440F243
:100D3000000340F2000240F20001FFF7C1FE01B0E3
:100D4000044A05490A600020DDF800E001B0704760
:100D5000D0110000410900001C00002081B0CDF836
:100D600000E009E00846FFF77BFF0AE00846FFF7CE
:100D70005BFF06E0012004E00028F3D00128F5D055
:100D8000F8E7DDF800E001B07047FFFF83B0CDF871
:100D900000E0024610460D228DF808200A228DF848
:100DA00009201FE0FFF7C2FE23E002782AB101907C
:100DB000FFF7BCFE0198401CF7E71AE002782AB161
:100DC0000190FFF7B3FE0198401CF7E702AA104616
:100DD000FFF7ACFE0DF109021046FFF7A7FE08E091
:100DE000062007E00029DDD00129DED00229E5D068
:100DF000F6E70020DDF800E003B0704781B0CDF8E1
:100E000000E0FFF7F7FEDDF800E001B07047FFFFFC
:100E100081B0CDF800E0FFF7FBFEDDF800E001B0A7
:100E20007047FFFF81B0CDF800E003460846FFF7AA
:100E300033FF1846FFF752FFDDF800E001B07047BE
:100E400081B0CDF800E011E00846FFF77FFE16E024
:100E50000846FFF7B3FE12E00846FFF793FE0EE0E8
:100E60000846FFF75FFF0AE0012008E00028EBD00A
:100E70000128EDD02028EFD03028F1D0F4E7DDF8BC
:100E800000E001B07047FFFF81B0CDF800E0FFF750
:100E900017FFDDF800E001B0704702040608FFFF0D
:100EA00082B0CDF800E0FFF7EFFF012807D1FFF790
:100EB000A5FF8DF8040001A80021FFF767FF0020BF
:100EC0008DF804009DF80400092810D29DF8041044
:100ED0000E4840180078FFF79BFF0D480221FFF7EE
:100EE00055FF9DF80400401C8DF80400EAE743F22A
:100EF000FF57C0F26E1700BF00BF7F1EFDD100BFBD
:100F000000BF00BFDDF800E002B07047BC13000076
:100F10000C00002081B01548006840F00101134822
:100F200001601349134801601048016812480140EC
:100F30000E4801600D4801686FF4802001400B48A5
:100F400001600C4801686FF4FE000140094801602F
:100F5000064801686FF0A0500140044801604FF05E
:100F600000010648016001B0704700BF0010024058
:100F70000000FFF004100240FFFFF6FE2C100240BC
:100F800081B0CDF800E00C4801460020FFF7E6FEF6
:100F900042F280510020FFF753FF44F67F77C0F202
:100FA00012077F1EFDD100BF00BF00BF00BF00BF02
:100FB000DDF800E001B07047A0130000FFFFFFFF65
:100FC00081B0CDF800E00B490B48FFF72BFF0B4831
:100FD0000221FFF7DBFE44F67F77C0F2120700BF65
:100FE00000BF7F1EFDD100BF00BF00BFDDF800E0E5
:100FF00001B07047B013000014130000000000207F
:1010000081B04FF000094FF0000CBDEB0A0F04DC7B
:10101000BDEB0B0F01DBD446EA464BF8049BBBEB60
:101020000A0FFAD1BCEB0A0F05DDE246D9F800B091
:101030000BF1040BF1E701B07047FFFF81B01CF822
:10104000019B0BF8019BBBEB0A0FF8D101B0704775
:1010500081B002490248016001B0704740190100A7
:101060002000002081B0FEE701B0704781B0CDF8CC
:1010700000E0464A464B474C47494BF68030814298
:1010800006D94648006840F002014448016011E07A
:1010900045F6C050814206D94048006840F0010141
:1010A0003E48016006E03D4801686FF007000140DE
:1010B0003A480160FFF72EFF394803603948046061
:1010C000394802EA00013948016002F0010040B1EC
:1010D00019463648006800F00200002800D1F8E701
:1010E00000E0194602F4803040B10B462F480068FA
:1010F00000F40030002800D1F8E700E00B4602F0D1
:10110000805068B12948006840F08051274801604C
:101110002648006800F00050002800D1F8E7FFE7FB
:1011200002F0806078B12148006840F080611F487B
:10113000016011461A461D48006800F00060002852
:1011400000D1F8E701E011461A4601F0807070B155
:101150001648006840F08071144801601146134839
:10116000006800F0007000B9F9E70A46FFE70C4894
:10117000006800F00C01900000F00C00814200D0EB
:10118000F5E7DDF800E001B0704700BF8100010520
:1011900002841D00440601004019010000200240A5
:1011A000041002402C100240FFFF0F00001002400C
:1011B000FFF75CFF00F048F9FFF74AFF00F004F981
:1011C000FFF7DEFEFFF7FCFEFFF76AFEFCE7FEE737
:1011D0003500000036000000FFFFFFFF00000000A8
:1011E00000000000000000000000000000000000FF
:1011F00000000000000000000000000000000000EF
:1012000000000000180800001800000000000000A6
:1012100000000000000000000000000000000000CE
:1012200000000000000000000000000000000000BE
:101230000000000000000000080000083800000066
:1012400039000000FFFFFFFF000000000000000069
:10125000000000000000000000000000000000008E
:10126000000000000000000000000000000000007E
:101270001808000018000000000000000000000036
:10128000000000000000000000000000000000005E
:10129000000000000000000000000000000000004E
:1012A0000000000030001408090000000A000000DF
:1012B000FFFFFFFF00000000000000000000000032
:1012C000000000000000000000000000000000001E
:1012D00000000000000000000000000018080000EE
:1012E00018000000000000000000000000000000E6
:1012F00000000000000000000000000000000000EE
:1013000000000000000000000000000000000000DD
:1013100004000000FFFFFFFFFFFFFFFFFFFFFFFFD5
:10132000FFFFFFFFFFFFFFFFFFFFFFFFFFFFFFFFCD
:10133000FFFFFFFFFFFFFFFFFFFFFFFFFFFFFFFFBD
:10134000FFFFFFFFFFFFFFFFFFFFFFFFFFFFFFFFAD
:10135000FFFFFFFFFFFFFFFFFFFFFFFFFFFFFFFF9D
:10136000FFFFFFFFFFFFFFFFFFFFFFFFFFFFFFFF8D
:10137000FFFFFFFF496E697469616C697A656400FB
:101380004D4553534147452053454E5400000000FE
:1013900000010203040102030406070809FFFFFF1E
:1013A0008025000000000000000000000000000098
:1013B0005D090000510A0000810A00004D696B724E
:1013C0006F450D0A00FFFFFF00B5DFF814B0DFF82E
:1013D00014A0DFF814C0FFF731FE00BD704700BF56
:1013E000000000201900002074130000FFFFFFFF21
:1013F000FFFFFFFFFFFFFFFFFFFFFFFFFFFFFFFFFD
:10140000FFFFFFFFFFFFFFFFFFFFFFFFFFFFFFFFEC
:10141000FFFFFFFFFFFFFFFFFFFFFFFFFFFFFFFFDC
:10142000FFFFFFFFFFFFFFFFFFFFFFFFFFFFFFFFCC
:10143000FFFFFFFFFFFFFFFFFFFFFFFFFFFFFFFFBC
:10144000FFFFFFFFFFFFFFFF00B5DFF810B0DFF881
:1014500010A0FFF7D5FD00BD704700BF00000020C1
:1014600054000020FFFFFFFFFFFFFFFFFFFFFFFF14
:00000001FF
